:100000000C9470000C9498000C9498000C94980038
:100010000C9498000C9498000C9498000C94980000
:100020000C9498000C9498000C9498000C949800F0
:100030000C9498000C9498000C9498000C949800E0
:100040000C9498000C9498000C9498000C949800D0
:100050000C9498000C9498000C9498000C949800C0
:100060000C9498000C9498000C944C0C0C94260C56
:100070000C9498000C9498000C9498000C949800A0
:100080000C9498000C9498000C9498000C94980090
:100090000C94BE0C0C94980C0C94720C0C9498005C
:1000A0004E414E494E495459494E46CDCCCC3D0A5D
:1000B000D7233C17B7D13877CC2B329595E6241F40
:1000C000B14F0A000020410000C84200401C4620F9
:1000D000BCBE4CCA1B0E5AAEC59D7400220DA60FA5
:1000E00011241FBECFEFCDBFDFE3DEBF2FE2AAE0BA
:1000F000B8E201C01D92A232B207E1F718E2A0E017
:10010000B8E2E4EAF3E302C005900D92AA30B10729
:10011000D9F710E0CFE6D0E004C02197FE010E949D
:100120001C13CE36D107C9F70E94A80D0C94E21714
:100130000C940000AF92BF92CF92DF92EF92FF92A9
:100140000F931F93CF93DF936C017B018B01040FFF
:10015000151FEB015E01AE18BF08C017D10759F09B
:100160006991D601ED91FC910190F081E02DC601DD
:100170000995892B79F7C501DF91CF911F910F91D7
:10018000FF90EF90DF90CF90BF90AF900895FC016B
:10019000A485B58511968C91119781FD0FC09C9116
:1001A00082898F5F8F732389281749F0A289AE0F48
:1001B000BF2FB11D59969C93828B08958C91089501
:1001C000FC0154894589252F30E0842F90E0821B63
:1001D000930B541710F0CF96089501970895FC01E2
:1001E00092898389981761F0A389AE0FBF2FB11D43
:1001F00059968C9193899F5F9F73938B90E008959C
:100200008FEF9FEF0895FC0192898389981731F051
:100210008389E80FF11D818D90E008958FEF9FEFA6
:100220000895FC0192892389892F90E0805C9F4F7B
:10023000821B91098F73992708958CE198E20E949F
:10024000110121E0892B09F420E0822F089585EB2C
:1002500098E20E94110121E0892B09F420E0822F0D
:100260000895CF93DF93EC01E881F9810284F3854F
:10027000E02D0995EC85FD8586818F738683EC855D
:10028000FD8585818F7585838B898A8B198ADF919E
:10029000CF910895CF93DF93FC0194898589C4851C
:1002A000D585981306C08D818F7D8D83DF91CF9189
:1002B0000895A589AE0FBF2FB11DA75ABF4F2C912E
:1002C000858990E001968F739927858B80E48C83D4
:1002D000A485B58512962C93948985899813E6CFC9
:1002E000A485B58515968C9115978F7D15968C9361
:1002F00087898823D9F2808D80931301178AD6CFFE
:10030000DC011C96ED91FC910FB607FE03C0258120
:1003100025FD04C0248125FD0C944A010895EF9227
:10032000FF920F931F93CF93DF93EC0181E0898BB2
:100330009C898D8998131CC0AC85BD8514968C91C1
:10034000149785FF15C012966C93AC85BD8580E42B
:1003500014968C93EC85FD8585818F7D858381E066
:1003600090E0DF91CF911F910F91FF90EF90089552
:100370008091110180FF08C080911301888F8E89C0
:100380008093130181E08F8BF62E0C8910E00F5FB4
:100390001F4F0F731127E02E8D898E1104C0CE01DF
:1003A0000E948001F9CFEC89EC0FFD2FF11DE75A77
:1003B000FF4FF0820C8BEC85FD8585818062CECF6E
:1003C000CF93DF93FC0121892223C9F0EC018091B6
:1003D000110180FF08C080911301808F868980936E
:1003E000130181E0878BEC85FD85858185FD03C048
:1003F000848186FD04C0CE010E948001F4CFDF918C
:10040000CF91089580E090E0892B29F00E94270188
:1004100081110E94000080E090E0892B29F00E9469
:100420001D0181110C940000089581E00895282F8A
:1004300030E0F901E05CFF4840814F3F09F44EC0D5
:100440008B3258F4F901EE50F049E081EE2329F0A7
:10045000E13099F010F0E63010F1F901EA5DFF4863
:10046000E081A0E2EA9FF0011124FC5F80818423F7
:1004700011F1672BF1F446830895E091010AD90147
:10048000A45FBF485C915C5F81E090E001C0880F91
:100490005A95EAF780958E238093010ADECF80E19A
:1004A000E89FF0011124E05AF54F81818F7E81830E
:1004B000D4CF45830895245F3F48D9018C9130976C
:1004C00071F08F3F61F07096E80FF11D9FB7F894BF
:1004D0008081672B39F4877F80839FBF0895F0E088
:1004E000E0E0F4CF8860F8CFCF92DF92EF92FF92F6
:1004F0000F931F93CF93DF93EC016A017B01022FCF
:100500008989882339F0E881F9810088F189E02D13
:10051000CE01099598898091E205892B8093E205A7
:100520001FB7F89460E070E281EA97E0A7019601B6
:100530000E94DB1269017A018FEFC81AD80AE80A13
:10054000F80AF694E794D794C794EC85FD858681E4
:100550008D7F8683EC85FD8586818683198AA091AF
:1005600023110A2E000CBB0BA70196010E94221337
:1005700020E034E040E050E00E94FD12EC85FD8573
:10058000C20ED31EE41EF51EC086D186EC85FD8505
:100590000783EC85FD858681806C8683EC85FD85EF
:1005A0008581806885838E858B3228F590E0FC01FB
:1005B000E05CFF4820812F3FF1F0FC01EA5DFF483D
:1005C000A081E0E2AE9FD0011124BC5F845F9F4810
:1005D000FC013081F0E0E0E03F3F29F0CD014096A2
:1005E000FC01E30FF11D9FB7F89412962C938081C4
:1005F000886080839FBF8F858B3220F461E070E03C
:100600000E9417028F858B3288F490E0FC01E05C39
:10061000FF4820812F3F51F08A5D9F48DC01EC911B
:10062000B0E2EB9FF0011124FC5F21831FBFDF913B
:10063000CF911F910F91FF90EF90DF90CF90089591
:100640002FB7F8946091102870911128809112288A
:10065000909113282FBF08958F929F92AF92BF92CF
:10066000CF92DF92EF92FF920F931F93CF93DF937E
:100670007C018C01060F171FEC016E01CE18DF08FC
:100680000C171D0759F10E942003609324287093D2
:10069000252880932628909327288CE198E20E94B1
:1006A000EF0097FF29C00E9420038090242890909B
:1006B0002528A0902628B0902728681979098A094A
:1006C0009B098090202890902128A0902228B0900B
:1006D0002328681579058A059B05F8F2C601DF9184
:1006E000CF911F910F91FF90EF90DF90CF90BF902F
:1006F000AF909F908F9008958993BFCFDC01ED91CB
:10070000FC910684F785E02D23E030E009941F93E7
:10071000CF93DF93DC015D96ED91FC915E975C9643
:100720002C915C97322F30951FB75B964C915B975D
:100730005F968D919C9141116095F894508144236E
:1007400019F1522B5083DC011197F1F758E0A62FD5
:10075000B0E060FF1BC06081622B6083EC012197D9
:10076000F1F7BD0175956795515089F7442389F0DC
:100770002081232320831FBF0197F1F781E090E0C0
:10078000DF91CF911F9108955323DCCF60816323C4
:10079000E4CF3081232BEECF8F929F92AF92BF9206
:1007A000CF92DF92EF92FF920F931F93CF93DF933D
:1007B00000D000D0CDB7DEB76C017B018CE198E2B0
:1007C0000E941101892B91F40E942003F60101A1DE
:1007D00012A123A134A1601B710B820B930B633315
:1007E00071058105910550F380E04DC063E070E034
:1007F000CE0101960E942C03898111E0813041F4E1
:100800008A8111E0803E21F48B81813E09F410E061
:100810008CE198E20E941101892B89F40E94200347
:10082000F60181A092A0A3A0B4A0681979098A0951
:100830009B09633371058105910550F3D5CF8CE198
:1008400098E20E94EF009FEF980F9E3368F601E058
:10085000080FF7018193C02ED12CB601CF010E9461
:100860002C032E2DF70180E09E2F921B901718F479
:100870009191890FF9CFEC0CFD1CF7019081891340
:1008800011E081E081272496CDBFDEBFDF91CF91BB
:100890001F910F91FF90EF90DF90CF90BF90AF909E
:1008A0009F908F900895AF92BF92CF92DF92FF9268
:1008B0000F931F93CF93DF93CDB7DEB72597CDBFAF
:1008C000DEBF8C015B011D8283E0898387E18A831F
:1008D000F801F580FB821C828CE198E20E941101F4
:1008E000892B91F48AE18F0D8D83CE0101966C01E5
:1008F00086E0F82EFA94FF2061F0F60161916F0115
:10090000C8010E948703F6CF8CE198E20E94EF00B5
:10091000E3CF0E942003F80161A372A383A394A3F1
:10092000B501C8012596CDBFDEBFDF91CF911F91E4
:100930000F91FF90DF90CF90BF90AF900C94CC03BD
:10094000CF93DF93EB010E945304882389F0288121
:1009500090E02450330B492F50E0FE01E40FF51FC7
:100960004217530724F4448140839F5FF4CF1082E1
:10097000DF91CF910895AF92BF92CF92DF92EF9225
:10098000FF921F93CF93DF9300D000D0CDB7DEB797
:100990007C01B62E6A011B821C8282E089836A83F5
:1009A000F70115811B838CE198E20E941101892BCC
:1009B00081F41B0D1E5F1C83CE0101965C0115E0C6
:1009C000115061F0F50161915F01C7010E94870339
:1009D000F7CF8CE198E20E94EF00E5CF0E94200360
:1009E000F70161A372A383A394A3B601C701249660
:1009F000CDBFDEBFDF91CF911F91FF90EF90DF90D1
:100A0000CF90BF90AF900C94CC030F931F93CF93D4
:100A1000DF93CDB7DEB72697CDBFDEBF8C01AE0129
:100A20004F5F5F4F65E10E94BB04882319F09A81F4
:100A3000F80196832696CDBFDEBFDF91CF911F913F
:100A40000F910895CF92DF92EF92FF920F931F9331
:100A5000CF93DF9300D000D0CDB7DEB78C018CE10F
:100A600098E20E941101892B91F40E942003F80161
:100A7000C1A0D2A0E3A0F4A06C197D098E099F0942
:100A8000633371058105910550F380E010C063E088
:100A900070E0CE0101960E942C0389818130A9F774
:100AA0008A81803E91F781E09B81913E71F7249687
:100AB000CDBFDEBFDF91CF911F910F91FF90EF90DF
:100AC000DF90CF900895FC01808191810C94C61332
:100AD000FC0101900020E9F73197AF01481B590B49
:100AE000BC0185EB98E20C949A00CF93DF93EB0165
:100AF000811112C08AE790E70E9468054C815D81F0
:100B00006881798185EB98E20E949A0085E890E7F8
:100B1000DF91CF910C9468058EE790E7EDCF0F93AE
:100B20001F93CF93DF93EC0188819981009759F04F
:100B30002A813B812617370730F081E0DF91CF9182
:100B40001F910F9108958B016F5F7F4F0E944F148B
:100B5000009759F0888399830A831B832C813D81F8
:100B6000232B59F7FC011082E8CF80E0E7CFEF920A
:100B7000FF920F931F93CF93DF93EC017B018A01C8
:100B8000BA010E948F0528813981811114C0211575
:100B9000310519F0C9010E94C613188219821C82FE
:100BA0001D821A821B82CE01DF91CF911F910F917E
:100BB000FF90EF9008950C831D83B701C9010E9437
:100BC0002015F1CFFC01108211821282138214824F
:100BD0001582FB0101900020E9F73197AF01461B18
:100BE000570B0C94B705CF92DF92EF92FF920F93C1
:100BF0001F93CF93DF93CDB7DEB72697CDBFDEBF70
:100C0000682F8091522990915329892B09F4A7C00C
:100C100000914E2910914F29062E000C770BC80128
:100C20000E941515009709F49AC09C01201B310BF6
:100C300089010F3F100709F492C00F5F1F4F6FEE3D
:100C400072E7CE0101960E94E205809152299091AF
:100C500053290817190708F071C0E0904E29F09049
:100C60004F2969817A81C701800F911F0E94271542
:100C7000009709F463C0FC01EE19FF097F01CE0162
:100C800001960E946305E016F10628F4902F812F4B
:100C90008701E92EF82E67E870E7CE0101960E94E1
:100CA000E205C0905229D09053290C151D0548F536
:100CB000EC14FD0408F46701E0914E29F0914F29EE
:100CC000EC0DFD1DF080108260914E2970914F292E
:100CD000600F711F61157105A9F1FB0101900020E2
:100CE000E9F73197AF01461B570BCE0101960E94E1
:100CF000B70580914E2990914F29C80ED91EF60153
:100D0000F08289819A81C12CD12C7601009721F043
:100D10000E94AA0F6B017C01CE0101960E9463051F
:100D2000C701B6012696CDBFDEBFDF91CF911F91DF
:100D30000F91FF90EF90DF90CF900895EE24EA940A
:100D4000FE2C9DCF89819A81009711F00E94C613D5
:100D500019821A821D821E821B821C82CACFC12C5C
:100D6000D12C80E8E82E8FEBF82EDACF9F92AF924D
:100D7000BF92CF92DF92EF92FF920F931F93CF9388
:100D8000DF93CDB7DEB75C01CDB6DEB692E0940F4F
:100D9000E92EF12C8FEFE81AF80AF7013196ADB77A
:100DA000BEB7AE1BBF0BADBFBEBF0DB71EB70F5F4B
:100DB0001F4F11969C93F8016183D50115968C9174
:100DC0008283522FADB7BEB71496F90181918D93EE
:100DD0008E2F851B8417D0F3D801E0E080E02D91A1
:100DE000820FEF5F9E17D8F7E00FF12FF11D808380
:100DF0008CE198E20E941101892B29F08CE198E2A4
:100E00000E94EF00F5CF912C892D90E0E816F906AD
:100E10004CF0800F911FFC016081C5010E94870387
:100E20009394F2CF0E942003D50191966D937D9308
:100E30008D939C939497C5010E942205CDBEDEBE82
:100E4000DF91CF911F910F91FF90EF90DF90CF90A6
:100E5000BF90AF909F900895CF93DF93CDB7DEB74B
:100E60006697CDBFDEBFFE013196BE01695E7F4F42
:100E70009F011192E617F707E1F7FC0165816130E8
:100E800079F44A835B8341E34887698741E169E1FB
:100E90000E94B6066696CDBFDEBFDF91CF91089562
:100EA0004CE34987F3CF8F929F92AF92BF92CF923C
:100EB000DF92EF92FF920F931F93CF93DF93CDB703
:100EC000DEB7CF55D109CDBFDEBF8DE40E94F3055B
:100ED0000E949112FB01E855F240E433F10508F05D
:100EE000B2C4EB58F84F0C941C13A907DD07740823
:100EF000CF085A09B009DA09030A410B230CC40AC6
:100F0000230C230C230C230CCF0B230C230C230CBE
:100F1000230C230C230C230C2509230C230C230C5A
:100F2000230C680B230C330A230C230C230C230CF7
:100F3000230C230C230C230C230CFC0A230C230C62
:100F4000230C230C230C230C230C230C230CF50B58
:100F50000F0C8EE40E94F3050E9491126F3F09F47A
:100F60006FC4683208F06CC4E62E062E000CFF0831
:100F700015E26102C0011124AE014F5F5F4F62E0D4
:100F80008C5A964D0E94BB04811103C06CE870E737
:100F90009EC01E9DF0011F9DF00D1124EC5AF64DD0
:100FA0008A81868367EA70E7CE0101960E94E20596
:100FB000BE016F5F7F4F80E092C08EE40E94F30518
:100FC0000E949112062F88E50E94F3054B015C01F7
:100FD0000F3F09F435C4083208F032C4E02E002E69
:100FE000000CFF0885E20802800111240C5A164DFE
:100FF0008E9DF0018F9DF00D1124EC5AF64D8681E7
:10100000811103C0C8010E94050585E28E9DF00193
:101010008F9DF00D1124EC5AF64D8681803439F005
:10102000C501B4010E94911216160CF04EC01B822D
:101030001C8282E0898383E08A8385E28E9DF001B1
:101040008F9DF00D1124EC5AF64DD580DB828CE19A
:1010500098E20E941101892B99F485E08D0D8C8313
:10106000CE0101966C01A5E09A2E5C019A9499201C
:1010700061F0F60161916F01C8010E948703F6CF0C
:101080008CE198E20E94EF00E2CF0E94200325E26B
:101090002E9DF0012F9DF00D1124EC5AF64D61A309
:1010A00072A383A394A3C8010E942205882369F038
:1010B00062ED70E7C5010E94E205B50180E00E9483
:1010C0007505C5010E9463053AC160EE70E7CE0167
:1010D00001960E94E205BE016F5F7F4F81E00E9492
:1010E0007505CE010196EECF8EE40E94F3050E94B5
:1010F0009112062F6F3F09F4A3C3683208F0A0C312
:1011000015E20102C00111248C5A964D0E9405057A
:101110000103F0011124EC5AF64D86818234C9F1A5
:1011200048F5882399F167EF70E7803449F11F9201
:101130008F9382EE91E79F938F938E010F5F1F4FE6
:101140001F930F930E944115B801CE018F5B9F4FF3
:101150000E94E2050F900F900F900F900F900F904C
:10116000BE016F5B7F4F80E00E947505CE018F5BF3
:101170009F4FA8CF833481F066EB71E78434B9F6D2
:10118000CE018F5B9F4F0E94E205EACF62E171E7DB
:10119000F7CF6FE371E7F4CF65E771E7F1CF8EE446
:1011A0000E94F3050E9491126F3F09F449C368320F
:1011B00008F046C3F5E26F02C0011124BE016F5F63
:1011C0007F4F8C5A964D0E94A0048E010F5B1F4FDB
:1011D000811103C060E172E7CEC18E8190E0B0E082
:1011E000A0E04C8150E070E060E0DC0199278827A6
:1011F000762F652F542F4427840F951FA61FB71FE6
:101200002B81820F911DA11DB11DBF93AF939F93A1
:101210008F9380E092E79F938F931F930F930E9489
:101220004115B801CE01865A9F4F0E94E205BE01CA
:10123000665A7F4F80E00E947505CE01865A9F4F07
:101240000E946305CDBFDEBF7AC08EE40E94F30525
:101250000E9491126F3F09F4F3C2683208F0F0C2A5
:1012600095E26902800111240C5A164DBE016F5F90
:101270007F4FC8010E9453048823C9F0FE013296B3
:10128000CE014296238121938E179F07D9F71982A9
:101290001C821D821F829E012F5F3F4F41E169E149
:1012A000C8010E94B60669E272E781117DCE6CE347
:1012B00072E70DCF8EE40E94F3050E9491126F3FFA
:1012C00009F4BEC2683208F0BBC2E5E26E02C0019A
:1012D0001124BE016F5F7F4F8C5A964D0E94A0046F
:1012E0008E010F5B1F4F882309F474CF8D858F709B
:1012F00090E0982F88272985820F911D9F938F93C7
:1013000087E592E79F938F931F930F930E94411558
:10131000B801CE01865A9F4F0E94E205BE01665A6F
:101320007F4F80E00E947505CE01865A9F4F0E9434
:1013300063050F900F900F900F900F900F90C15A70
:10134000DF4FCDBFDEBFDF91CF911F910F91FF9097
:10135000EF90DF90CF90BF90AF909F908F900895C7
:101360008EE40E94F3050E9491126F3F09F468C257
:10137000683208F065C2F5E26F02C0011124BE01B7
:101380006F5F7F4F8C5A964D0E94A0048E010F5BB9
:101390001F4F882309F41ECF8D85807F20E1829F17
:1013A000C00111242A85820F911D9F938F938AE695
:1013B00092E7A8CF8EE40E94F3050E9491126F3F3E
:1013C00009F43EC2683208F03BC2E5E26E02C00199
:1013D0001124BE016F5F7F4F8C5A964D0E94A0046E
:1013E0008E010F5B1F4F882309F4F4CE8E858F701A
:1013F00090E0982F88272B85820F911D9F938F93C4
:101400008DE792E77FCF8EE40E94F3050E94911250
:10141000862F6F3F09F414C2683208F011C260FDD4
:101420001FC0F5E28F02C0011124BE016F5F7F4F24
:101430008C5A964D0E94A0048E010F5B1F4F88238B
:1014400009F4C8CE8E85807F20E1829FC0011124DF
:101450002C85820F911D9F938F9380E992E752CF45
:101460008FEF860FDECF8EE40E94F3050E9491126B
:101470008E010F5F1F4F6F3F09F47BC0683208F089
:1014800078C0E5E26E02C0011124BE016F5B7F4FA0
:101490008C5A964D0E94A004882309F49BCE619635
:1014A0008FAD61971F928F9360968FAD60971F925B
:1014B0008F932F968FAD2F971F928F932E968FAD70
:1014C0002E971F928F932D968FAD2D971F928F93EE
:1014D0002C968FAD2C971F928F932B968FAD2B97B9
:1014E0001F928F932A968FAD2A971F928F932996DA
:1014F0008FAD29971F928F9328968FAD28971F92B3
:101500008F9327968FAD27971F928F9326968FAD37
:1015100026971F928F9325968FAD25971F928F93B5
:1015200024968FAD24971F928F9323968FAD239788
:101530001F928F9322968FAD22971F928F9380EAEE
:1015400092E79F938F931F930F930E944115CDBFF6
:10155000DEBFB801CE01865A9F4F0E94E205BE0150
:10156000665A7F4F80E00E947505CE01865A9F4FD4
:10157000A9CD66EB70E7C8010E94E205B80181E0E1
:101580000E947505C8019ECD8EE40E94F3050E945D
:101590009112862F6F3F09F453C1683208F050C191
:1015A000FF24F39460FF03C08FEF860FF12CE5E278
:1015B0008E02C0011124BE016F5F7F4F8C5A964D81
:1015C0000E94A0048E010F5B1F4F882309F402CEF6
:1015D0008A8190E0982F88272981820F911D2AE81F
:1015E00030E7FF2011F028E830E73F932F939F93D7
:1015F0008F9381EF92E70FCE8EE40E94F3050E9455
:101600009112162F062F88E50E94F3051F3F09F45B
:1016100017C1183208F014C110FD20C00E949112A9
:10162000AB01770F660B770B4F3F9FEF59076907A9
:101630007907B9F041155105E1E06E07710588F4AD
:10164000F5E20F0280011124C8018C5A964D0E94C8
:101650002C07811109C060E172E739CD0FEF010F4E
:10166000DDCF6AEF72E733CD40E050E0BA01C80148
:101670008758964D0E942C0766E173E7811194CC40
:10168000EACF8EE40E94F3050E9491126F3F09F4A5
:10169000D7C0683208F0D4C025E26202C00111242C
:1016A000BE016F5F7F4F8C5A964D0E94A0048E0141
:1016B0000F5B1F4F882309F48DCD8D81882331F076
:1016C00084E01F928F938DE193E71CCE82E0F9CFE7
:1016D0008EE40E94F3050E9491126F3F09F4B0C09E
:1016E000683208F0ADC085E26802800111240C5A0E
:1016F000164DBE016F5F7F4FC8010E94A00481118B
:1017000003C060E172E741C0FF24F3948D81811131
:10171000F12C2296FFAE229723961FAE23979E01AF
:101720002F5B3F4F41E06CE1C8010E94B606882361
:1017300051F1BE016F5B7F4FC8010E9453048823A3
:1017400011F1E1E4F0E0EC0FFD1F319681E490E04F
:101750008C0F9D1F4196238121938E179F07D9F7E8
:1017600022961FAE22972796FFAE27979E012F5BEA
:101770003F4F41E169E1C8010E94B606882319F094
:1017800063E273E7FDCC6DE273E7CE018F5B9F4FA1
:101790000E94E205BE016F5B7F4F81E0E5CC8EE4E5
:1017A0000E94F3050E9491126F3F09F449C068320C
:1017B00008F046C0E5E26E02C0011124AE014F5FA1
:1017C0005F4F61E08C5A964D0E94BB048E010F5B07
:1017D0001F4F882309F4FECC8C811F928F938B813D
:1017E0001F928F9381E493E716CD8EE40E94F30558
:1017F0000E9491126F3F21F1683210F585E08983D4
:101800001A82E5E26E02C00111249E012F5F3F4F54
:1018100041E068E18C5A964D0E94B606B7CB8EE443
:101820000E94F3050E9491126F3F51F0683240F41C
:1018300087E089831A82F5E26F02C0011124E5CFA7
:1018400066EB70E744CC68E573E7AECB1F920F926E
:101850000FB60F9211242F933F934F935F936F9383
:101860007F938F939F93AF93BF93EF93FF938CE1FD
:1018700098E20E944A01FF91EF91BF91AF919F9131
:101880008F917F916F915F914F913F912F910F9029
:101890000FBE0F901F9018951F920F920FB60F92C8
:1018A00011242F933F934F935F936F937F938F9365
:1018B0009F93AF93BF93EF93FF938CE198E20E94C5
:1018C000C700FF91EF91BF91AF919F918F917F9151
:1018D0006F915F914F913F912F910F900FBE0F909D
:1018E0001F9018951F920F920FB60F9211242F93ED
:1018F0003F934F935F936F937F938F939F93AF9398
:10190000BF93EF93FF9385EB98E20E944A01FF910A
:10191000EF91BF91AF919F918F917F916F915F9167
:101920004F913F912F910F900FBE0F901F901895E0
:101930001F920F920FB60F9211242F933F934F9344
:101940005F936F937F938F939F93AF93BF93EF9327
:10195000FF9385EB98E20E94C700FF91EF91BF9142
:10196000AF919F918F917F916F915F914F913F9137
:101970002F910F900FBE0F901F9018951F920F92EE
:101980000FB60F9211242F933F934F935F936F9352
:101990007F938F939F93AF93BF9340911028509163
:1019A0001128609112287091132880910E2890912F
:1019B0000F282091162830911728420F531F611DC0
:1019C000711D2091142830911528820F931F883E95
:1019D00023E0920730F0885E93404F5F5F4F6F4F78
:1019E0007F4F80930E2890930F2840931028509398
:1019F0001128609312287093132880910A289091DF
:101A00000B28A0910C28B0910D280196A11DB11DA5
:101A100080930A2890930B28A0930C28B0930D284C
:101A200081E08093B60ABF91AF919F918F917F9192
:101A30006F915F914F913F912F910F900FBE0F903B
:101A40001F901895CF93DF9310921E2810921F2895
:101A500048EE53E060E070E0409320285093212846
:101A600060932228709323288EE590E780931C28AA
:101A700090931D2820E238E02093282830932928CD
:101A800010922A2821E020932B2824E020932C2850
:101A900010922E2810922F28109230281092312860
:101AA0002BE1209332281092332810923428109280
:101AB000B7281092B8284093B9285093BA28609359
:101AC000BB287093BC288093B5289093B62880E6F5
:101AD00098E08093C1289093C22888E18093C3281E
:101AE00089E18093C42880E48093C5281092C72898
:101AF0001092C8281092C9281092CA2886E28093B2
:101B0000CB281092CC281092CD28C4E5D9E248E722
:101B100050E72FEF3FEF91E0488359832A833B83BF
:101B20001E8284E1EEEDFFE6DE01179601900D9234
:101B30008A95E1F79B8FA5968FE2CC31D80761F7A4
:101B400067E870E78EE499E2DF91CF910C94E205AB
:101B5000CF93DF93CDB7DEB72697CDBFDEBF88ED3D
:101B600090E084BF9093610080E094E2A4EFB0E045
:101B70008093002890930128A0930228B093032813
:101B80008091020686608093020680910006816043
:101B900080930006809102068F7C809302068091DC
:101BA000A0008F788093A0008091020680618093CE
:101BB00002061092E20581E08093E40583E08093C1
:101BC000010A8FEF90E08093260A9093270A80E81D
:101BD00090E08093380A9093390A80933A0A909360
:101BE0003B0A80933C0A90933D0A8BE08093000A65
:101BF0008091E50581608093E5058091E50582602F
:101C00008093E505E0E8FAE037E02FEF90E885E023
:101C100031832487958780837096E03C4AE0F407FF
:101C2000B9F780E094E080931A2890931B28809164
:101C30001A2890911B282FEF30E0B9010E94C7129B
:101C4000609318287093192880911A2890911B2866
:101C5000E8EEF3E0BF010E94C7126093162870936C
:101C6000172880911A2890911B28BF010E94C71243
:101C700080931428909315282093BC0A3093BD0AB2
:101C80008091B50A81608093B50A84E08093B00AA0
:101C90008091B00A81608093B00A789440E052EC61
:101CA00061E070E085EB98E20E947E0389E793E7AC
:101CB0000E94680585E890E70E94680585EB98E238
:101CC0000E94E00140E855E260E070E08CE198E2BB
:101CD0000E947E0304E519E2F12CE12C35E2B32EDB
:101CE000AA24A3944DE9C42EDD24D394D8011296DE
:101CF000ED92FC921397EE2DE6951496EC931497C3
:101D00008E2D81708F5F15968C93BE9CC001BF9CF9
:101D1000900D11248C5A964DE80FF92FF11D9780E4
:101D2000BAE28FEFB915C8F0F801638D6A2570E04B
:101D3000892D0E941702292D30E0F901E05CFF484F
:101D400080818F3F51F02A5D3F48D901EC91B0E28C
:101D5000EB9FF0011124FC5F8183F801848FFAE28C
:101D6000F91508F4ADC0E92DF0E0EA5DFF48808187
:101D7000863008F0A5C090E0809625E0880F991F76
:101D80002A95E1F70496D8015D968D939C935E9712
:101D90005F96CD92DC929097BFEFEB1AFB0A0B5D3A
:101DA0001F4FE8E2EE16F10409F0A0CF60E470E006
:101DB0008EE499E20E948F0580E993E70E9468050E
:101DC00085E890E70E94680585EB98E20E94110182
:101DD000892B09F4B8C085EB98E20E94EF00F82E39
:101DE000682F85EB98E20E948F01F9821A82009198
:101DF0005229109153290F5F1F4FB8018EE499E2C9
:101E00000E948F05882399F020914E2930914F2907
:101E10008091522990915329BE016F5F7F4F820FAD
:101E2000931F0E9420150093522910935329FAE022
:101E3000FF12CACF62EA73E7CE0101960E94E20563
:101E4000009152291091532901151105E1F1E090FB
:101E50004E29F0904F2969817A81C7010E94271588
:101E6000009789F18E199F098017910758F4E09126
:101E70004E29F0914F29E80FF91F80935229909332
:101E800053291082CE0101960E946305C0904E290D
:101E9000D0904F29C114D10441F0009152291091E2
:101EA000532976010115110591F40E94530750E062
:101EB00040E067E870E78EE499E20E94B70584CFBE
:101EC00090E080E05FCF8FEF9FEFCECF750157019D
:101ED0004FEFA41AB40AD7018C91082E000C990B6D
:101EE0000E94FE10892B91F7015011090C0D1D1D48
:101EF000F8018081082E000C990B0E94FE10892B9E
:101F000031F00E151F0518F001501109F1CFA8018D
:101F10004F5F5F4F4E195F094093522950935329E9
:101F2000CE14DF0420F4B701C6010E940C15E09125
:101F30004E29F0914F298091522990915329E80F11
:101F4000F91F1082B2CF0E9402023ECF8EE499E2C6
:101F50000C946305662777270C94AE0FB0E0A0E0E1
:101F6000E4EBFFE00C9457125C017B0161157105F5
:101F700019F0DB018D939C9385010F5F1F4FF501D5
:101F8000D0818D2F90E00E94FE106C01892BB9F555
:101F9000DD32B9F50F5F1F4FD5011196DC91C1E01D
:101FA0005801F1E0AF1AB10843E050E068EA70E090
:101FB000C5010E940711892B69F5680182E0C80EEE
:101FC000D11C45E050E063EA70E0C6010E940711B1
:101FD000892B21F4680197E0C90ED11CE114F104AA
:101FE00019F0D701CD92DC9260E070E080E89FEFBD
:101FF000C111FFC060E070E080E89FE7FAC05801BF
:10200000BBCFDB3229F485010E5F1F4FF501D18173
:10201000C0E0C6CF43E050E060EA70E0C5010E9436
:102020000711892BE9F0F80110E000E020E030E032
:10203000A9015F01B0ED8B2E8D0E89E08815C8F1E6
:102040009C2E689491F88C2F8870C2FF16C0811165
:1020500002C00F5F1F4F3196D501DC91C92DE9CF2A
:10206000E114F10429F00E5F1F4FF7010083118383
:1020700060E070E080EC9FE7BCC0882311F0015065
:102080001109A5E0B0E00E9446129B01AC01220FAD
:10209000331F441F551F280D311D411D511D283967
:1020A00099E93907490799E15907A8F2C6609C2EBA
:1020B000D2CFAEEF8A1206C0C3FD3CC09C2E6894FE
:1020C00093F8C9CFDF7DD534A9F580818D3239F4FD
:1020D000C061DF011296818162E070E006C0DF011D
:1020E0008B32C1F3119661E070E080535D01A61A56
:1020F000B70A8A30F8F4E0E8CE16ECE0DE065CF4CD
:10210000B601660F771F660F771FC60ED71ECC0C61
:10211000DD1CC80ED11C5D01FFEFAF1ABF0A8C9108
:1021200080538A30A8F1C4FF03C0D194C194D10870
:102130000C0D1D1DC1FF09C0E114F10431F081E057
:10214000A81AB108D701AD92BC92CA01B9010E9488
:102150002411C370C33009F490584B015C0120E096
:1021600030E0A9010E941F11882309F440C0C7ED87
:10217000D0E017FF05C0119501951109CFEBD0E014
:102180006E01B8E1CB1AD10880E2E82EF12C0FC025
:10219000D501B1CFFE0125913591459154910E198C
:1021A0001F09C501B4010E9485114B015C01D501D5
:1021B000C4010E151F0574F72497F594E794CC1607
:1021C000DD06A9F78A2F880F8B2F881F8F3F49F0D4
:1021D00020E030E0A901C501B4010E941F11811166
:1021E00006C082E290E080931C2F90931D2FC501C2
:1021F000B401CDB7DEB7ECE00C94701291110C94E1
:10220000F211803219F089508550C8F70895FB010A
:10221000DC014150504088F08D9181341CF08B35A9
:102220000CF4805E659161341CF06B350CF4605EDB
:10223000861B611171F3990B0895881BFCCF0E94D6
:10224000611108F481E00895E89409C097FB3EF419
:1022500090958095709561957F4F8F4F9F4F9923F3
:10226000A9F0F92F96E9BB279395F6958795779571
:102270006795B795F111F8CFFAF4BB0F11F460FF31
:102280001BC06F5F7F4F8F4F9F4F16C0882311F089
:1022900096E911C0772321F09EE8872F762F05C09D
:1022A000662371F096E8862F70E060E02AF09A9538
:1022B000660F771F881FDAF7880F9695879597F92D
:1022C0000895990F0008550FAA0BE0E8FEEF1616C7
:1022D0001706E807F907C0F012161306E407F5071A
:1022E00098F0621B730B840B950B39F40A2661F08E
:1022F000232B242B252B21F408950A2609F4A14031
:10230000A6958FEF811D811D08950E9498110C9450
:102310000C120E94FE1138F00E94051220F0952345
:1023200011F00C94F5110C94FB1111240C94401233
:102330000E941D1270F3959FC1F3950F50E0551F39
:10234000629FF001729FBB27F00DB11D639FAA270A
:10235000F00DB11DAA1F649F6627B00DA11D661F59
:10236000829F2227B00DA11D621F739FB00DA11D7A
:10237000621F839FA00D611D221F749F3327A00D34
:10238000611D231F849F600D211D822F762F6A2FD0
:1023900011249F5750409AF0F1F088234AF0EE0F35
:1023A000FF1FBB1F661F771F881F91505040A9F762
:1023B0009E3F510580F00C94F5110C9440125F3F44
:1023C000E4F3983ED4F3869577956795B795F7959E
:1023D000E7959F5FC1F7FE2B880F911D9695879516
:1023E00097F9089599278827089597F99F6780E8B6
:1023F00070E060E008959FEF80EC089500240A9457
:102400001616170618060906089500240A941216CF
:102410001306140605060895092E0394000C11F402
:10242000882352F0BB0F40F4BF2B11F460FF04C0AF
:102430006F5F7F4F8F4F9F4F089557FD9058440F08
:10244000551F59F05F3F71F04795880F97FB991F13
:1024500061F09F3F79F087950895121613061406D0
:10246000551FF2CF4695F1DF08C01616170618065D
:10247000991FF1CF86957105610508940895E89438
:10248000BB2766277727CB0197F908950E94821210
:10249000A59F900DB49F900DA49F800D911D1124B8
:1024A00008952F923F924F925F926F927F928F92F8
:1024B0009F92AF92BF92CF92DF92EF92FF920F93D3
:1024C0001F93CF93DF93CDB7DEB7CA1BDB0BCDBF16
:1024D000DEBF09942A88398848885F846E847D84A9
:1024E0008C849B84AA84B984C884DF80EE80FD80BC
:1024F0000C811B81AA81B981CE0FD11DCDBFDEBF5A
:10250000ED010895A29FB001B39FC001A39F700D7C
:10251000811D1124911DB29F700D811D1124911DEB
:1025200008950E9498126894B1110C944012089575
:102530000E94251288F09F5798F0B92F9927B7511C
:10254000B0F0E1F0660F771F881F991F1AF0BA9557
:10255000C9F714C0B13091F00E943F12B1E0089564
:102560000C943F12672F782F8827B85F39F0B93F56
:10257000CCF3869577956795B395D9F73EF490950A
:102580008095709561957F4F8F4F9F4F0895AA1B3F
:10259000BB1B51E107C0AA1FBB1FA617B70710F04E
:1025A000A61BB70B881F991F5A95A9F78095909580
:1025B000BC01CD010895A1E21A2EAA1BBB1BFD018F
:1025C0000DC0AA1FBB1FEE1FFF1FA217B307E40712
:1025D000F50720F0A21BB30BE40BF50B661F771F6A
:1025E000881F991F1A9469F760957095809590954A
:1025F0009B01AC01BD01CF010895052E97FB1EF490
:1026000000940E94141357FD07D00E94DB1207FCB0
:1026100003D04EF40C9414135095409530952195A9
:102620003F4F4F4F5F4F08959095809570956195FE
:102630007F4F8F4F9F4F0895EE0FFF1F0590F4912E
:10264000E02D0994B7FF0C9446120E944612821B9B
:10265000930B08950F931F93CF93DF9382309105CF
:1026600010F482E090E0E091202FF091212F30E0F3
:1026700020E0B0E0A0E0309799F42115310509F48D
:102680004AC0281B390B24303105D8F58A819B813B
:102690006115710589F1FB0182839383FE0111C0ED
:1026A000408151810281138148175907E0F0481792
:1026B000590799F4109761F012960C93129713969C
:1026C0001C933296CF01DF91CF911F910F91089506
:1026D0000093202F1093212FF4CF2115310551F0B5
:1026E0004217530738F0A901DB019A01BD01DF0150
:1026F000F801C1CFEF01F9CF8093202F9093212FC4
:10270000CDCFFE01E20FF31F819391932250310947
:1027100028833983D7CF20911E2F30911F2F232B51
:1027200041F4209106283091072820931E2F3093E2
:102730001F2F20910428309105282115310541F4DF
:102740002DB73EB74091082850910928241B350B1E
:10275000E0911E2FF0911F2FE217F307A0F42E1B1C
:102760003F0B2817390778F0AC014E5F5F4F2417F5
:10277000350748F04E0F5F1F40931E2F50931F2FB9
:10278000819391939FCFF0E0E0E09CCFCF93DF93D4
:102790000097E9F0FC01329712821382A091202F5A
:1027A000B091212FED0130E020E01097A1F42081BD
:1027B0003181820F931F20911E2F30911F2F2817D8
:1027C000390709F061C0E0931E2FF0931F2FDF91AE
:1027D000CF910895EA01CE17DF07E8F54A815B81C2
:1027E0009E0141155105B1F7E901EA83FB83499147
:1027F0005991C40FD51FEC17FD0761F480819181B9
:102800000296840F951FE9018883998382819381C1
:102810008A839B83F0E0E0E012968D919C91139760
:102820000097B9F52D913C911197CD010296820F39
:10283000931F20911E2F30911F2F2817390739F62B
:10284000309751F51092202F1092212FA0931E2F18
:10285000B0931F2FBCCFC283D38340815181840F9B
:10286000951FC817D90761F44E5F5F4F8881998122
:10287000480F591F408351838A819B8182839383B0
:102880002115310509F0B0CFE093202FF093212FCF
:102890009ECFFD01DC01C0CF12821382D7CFB0E002
:1028A000A0E0E5E5F4E10C9453128C01009751F49B
:1028B000CB010E942A138C01C801CDB7DEB7E0E13D
:1028C0000C946C12FC01E60FF71F9C012250310999
:1028D000E217F30708F49DC0D901CD91DC9111975F
:1028E000C617D70798F0C530D10530F3CE0104974D
:1028F0008617970708F3C61BD70B2297C193D1936E
:102900006D937C93CF010E94C613D6CF5B01AC1AA6
:10291000BD0A4C018C0E9D1EA091202FB091212F3D
:10292000512C412CF12CE12C109731F580911E2F68
:1029300090911F2F8815990509F05CC0461657061F
:1029400008F058C08091042890910528009741F420
:102950008DB79EB74091082850910928841B950B8C
:10296000E817F90708F055C0E0931E2FF0931F2FCA
:10297000F90160837183A0CF8D919C91119712967C
:102980006C90129713967C901397A815B90559F57A
:102990006C0142E0C40ED11CCA14DB0420F1AC016E
:1029A0004A195B09DA011296159780F062827382E8
:1029B00040835183D9016D937C93E114F10471F04C
:1029C000D7011296ED93FC93139776CF22968C0F36
:1029D0009D1FF90180839183F301EFCFE093202FB6
:1029E000F093212F69CF4816590608F42C017D0178
:1029F000D3019ACFCB010E942A137C01009749F0A2
:102A0000AE01B8010E940C15C8010E94C6138701CF
:102A100053CF10E000E050CFFB01DC0102C0019079
:102A20000D9241505040D8F70895FC0181918617CE
:102A300021F08823D9F7992708953197CF01089578
:102A4000FB01DC0101900D920020E1F70895FB01EC
:102A500051915523A9F0BF01DC014D91451741115A
:102A6000E1F759F4CD010190002049F04D91401556
:102A70004111C9F3FB014111EFCF81E090E00197D3
:102A80000895AEE0B0E0E7E4F5E10C945F120D8943
:102A90001E8986E08C8309831A838FEF9FE78D83DD
:102AA0009E83AE01475E5F4F6F89788DCE010196A0
:102AB0000E9464152F813885020F131FF8011082C0
:102AC0002E96E4E00C947812ABE0B0E0EAE6F5E193
:102AD0000C9451127C013B018A01FC011682178281
:102AE000838181FFC8C1CE0101965C01F70193810A
:102AF000F30193FD859193FF81913F01882309F4B0
:102B000053C1853239F493FD859193FF81913F0143
:102B1000853229F4B70190E00E945417E7CF912C39
:102B2000212C312CFFE1F31538F08B3211F190F4A8
:102B3000803209F1833229F137FC3CC020ED280FA7
:102B40002A3050F536FE20C08AE0989E200D1124D0
:102B5000922E06C08D3291F0803371F7689430F870
:102B6000F30193FD859193FF81913F018111DACFAC
:102B700021C0689431F8689432F8F2CF689433F841
:102B8000EFCF689434F8ECCFEAE02E9E200D1124AC
:102B9000222E689435F8E4CF8E3229F436FC04C135
:102BA000689436F8DDCF8C3619F4689437F8D8CFAE
:102BB0008836B1F2982F9F7D95549330E0F083369C
:102BC000A1F18337C1F1833509F063C02801F2E038
:102BD0004F0E511CF801C080D180692D70E036FC89
:102BE00002C06FEF7FEFC6010E943E174C01689450
:102BF00037F882010AC00C5F1F4FFFE3F983882476
:102C00008394912C6501E89437F833FE2DC0522C43
:102C10008114910471F5552009F468CFB70180E261
:102C200090E00E9454175A94F6CFF801808189836E
:102C30000E5F1F4FE4CF2801F2E04F0E511CF80148
:102C4000C080D180692D70E036FC02C06FEF7FEF4D
:102C5000C6010E9449174C018201D5CFB70180E21D
:102C600090E00E9454172A942814190409F0B0F730
:102C7000CECFF60137FC859137FE81916F01B70108
:102C800090E00E94541751105A94F1E08F1A910865
:102C9000BFCF843619F0893609F077C0F80137FEC6
:102CA0006BC060817181828193810C5F1F4FF32D16
:102CB000FF763F2E97FF09C090958095709561959E
:102CC0007F4F8F4F9F4F689437F82AE030E0A5017F
:102CD0000E948417C82ECA188C2C432C36FE0CC0B8
:102CE000E89440F8C91440F434FE05C032FC03C037
:102CF000F32DFE7E4F2E892C44FE95C0FE01EC0D77
:102D0000F11D8081803309F087C0242D297E422E59
:102D1000842D8870582E43FC95C040FE8FC09C2C9B
:102D2000821418F42C0C922C981844FE91C0B70110
:102D300080E390E00E94541742FE09C088E790E0CB
:102D400041FE02C088E590E0B7010E945417C91403
:102D500008F48AC0CA94D12C9FEFC91AD90ACA0CA8
:102D6000DB1CF60182916F01B70190E00E945417BD
:102D7000AC14BD04B1F74FCF60817181072E000CF8
:102D8000880B990B0E5F1F4F92CFD32CE894D4F889
:102D90002AE030E0853739F1232D297FD22E8F3676
:102DA00001F148F48835A9F0F701868197812B96C7
:102DB000E2E10C946A12803749F08837A9F7D4FE13
:102DC00002C06894D2F820E130E00DC06894D4F8D5
:102DD000F6CF34FE03C0822F8660D82E20E132E089
:102DE00002C028E030E0F801D7FE0FC06081718199
:102DF000828193810C5F1F4FA5010E948417C82E0A
:102E0000CA183D2CE89437F867CF6081718190E053
:102E100080E00E5F1F4FF0CF42FC02C0839478CF5A
:102E20008394839475CF842D867809F471CFF6CF7F
:102E3000B70180E290E00E94541783948214C0F39B
:102E4000512C73CF522C5818821408F46ECFF8CF3F
:102E5000842D867809F47BCF8BE241FE80E247FC2B
:102E60008DE2B70190E071CFB70180E390E00E945E
:102E700054179A946CCF8FEF9FEF99CFFC01059078
:102E8000615070400110D8F7809590958E0F9F1F6C
:102E90000895FC016150704001900110D8F78095B1
:102EA00090958E0F9F1F08950F931F93CF93DF93DD
:102EB000182F092FEB018B8181FD09C01FEF0FEF48
:102EC000812F902FDF91CF911F910F91089582FF55
:102ED00014C02E813F818C819D81281739073CF4D5
:102EE000E881F981CF0101968883998310838E81CF
:102EF0009F8101968E839F83E3CFE885F985812F9B
:102F00000995892BA1F3DACFFA01AA27283051F1CC
:102F1000203181F1E8946F936E7F6E5F7F4F8F4F0A
:102F20009F4FAF4FB1E03ED0B4E03CD0670F781F69
:102F3000891F9A1FA11D680F791F8A1F911DA11D4E
:102F40006A0F711D811D911DA11D20D009F4689487
:102F50003F912AE0269F11243019305D3193DEF62F
:102F6000CF010895462F4770405D4193B3E00FD0E5
:102F7000C9F7F6CF462F4F70405D4A3318F0495DD0
:102F800031FD4052419302D0A9F7EACFB4E0A695B3
:102F90009795879577956795BA95C9F700976105D5
:102FA000710508959B01AC010A2E0694579547952B
:102FB00037952795BA95C9F7620F731F841F951F20
:102FC000A01D089510E0CFE6D0E004C0FE010E94ED
:0E2FD0001C132196C037D107C9F7F894FFCF24
:102FDE0002030405060708090A0B15141312111033
:102FEE000F0E0D0C00000003000102000001010095
:102FFE0000000000000000000000000000000504BA
:10300E000005060204010300010001020302010093
:10301E000203040502030504020200050201050075
:10302E000401010404040303030305050303000064
:10303E0001012010012040041002080102010204C7
:10304E0008040201040810200408201000000000EB
:10305E008F019A001101EF000301E0017E0374025B
:10306E0031011502E0000000000087036F6B2000A5
:10307E006572726F7220000D0A004C0052004E6F86
:10308E002061636B6E6F776C656467652066726F27
:10309E006D2066656564657200536875747465723B
:1030AE00206F70656E6564006665656465724E6F4F
:1030BE00206D697373696E67206F7220696E766119
:1030CE006C6964005461706520616476616E63653D
:1030DE006400556E61626C6520746F206164766168
:1030EE006E6365207461706500676574466565641E
:1030FE0065725374617475733A20666565646572A2
:10310E00204F4B0067657446656564657253746144
:10311E007475733A20696E76616C69642C207374D1
:10312E0061747573206E6F7420757064617465645C
:10313E000067657446656564657253746174757372
:10314E003A204E6F20746170652074656E73696FDE
:10315E006E2E202054617065206D6179206265208D
:10316E0062726F6B656E0067657446656564657245
:10317E005374617475733A20546170652074616B79
:10318E00652D7570206E6F74207472696767657235
:10319E006564206166746572206D756C7469706CFF
:1031AE00652066656564730067657446656564656C
:1031BE00725374617475733A2046656564206D6F41
:1031CE00746F7220646964206E6F7420616476611E
:1031DE006E636500556E7265636F676E697A6564BE
:1031EE002073746174757320636F646520253032AB
:1031FE0058004665656420636F756E743A20256CC1
:10320E007500206E6F20726573706F6E7365206629
:10321E00726F6D2066656564657200466565642033
:10322E00636F756E7420636C656172656400556EB4
:10323E0061626C6520746F20636C656172206665D7
:10324E00656420636F756E74004572726F72203400
:10325E003220636F756E743A202575004572726F59
:10326E007220343320636F756E743A2025750045D5
:10327E0072726F7220343420636F756E743A20252B
:10328E007500526573657420636F756E743A2025F0
:10329E0075002530325820253032582025303258CE
:1032AE0020253032582025303258202530325820F3
:1032BE0025303258202530325820253032582025DE
:1032CE0030325820253032582025303258202530C3
:1032DE0032582025303258202530325820253032B1
:1032EE0058200049443A20257525730066656564AB
:1032FE0065724944206D697373696E67206F722021
:10330E00696E76616C6964004944207365740025AA
:10331E0064204D4D005069746368207365740055C8
:10332E006E61626C6520746F2073657420706974B1
:10333E006368004669726D77617265207665727397
:10334E00696F6E2025642E256400756E6B6E6F7727
:10335E006E206F7220656D70747920636F6D6D6174
:10336E006E642069676E6F72656400436F6E74726F
:10337E006F6C6C6572207374617274696E672E2E39
:10338E002E00436F6E74726F6C6C65722072656185
:06339E0064792E003B00E3
:0A33A4000024F4000000222F800036
:00000001FF
